{
  "_format": "hh-sol-artifact-1",
  "contractName": "ProviderRegistry",
  "sourceName": "contracts/ProviderRegistry.sol",
  "abi": [
    {
      "anonymous": false,
      "inputs": [
        {
          "indexed": true,
          "internalType": "address",
          "name": "provider",
          "type": "address"
        }
      ],
      "name": "ProviderDeregistered",
      "type": "event"
    },
    {
      "anonymous": false,
      "inputs": [
        {
          "indexed": true,
          "internalType": "address",
          "name": "provider",
          "type": "address"
        },
        {
          "indexed": false,
          "internalType": "string",
          "name": "endpoint",
          "type": "string"
        },
        {
          "indexed": false,
          "internalType": "string",
          "name": "model",
          "type": "string"
        },
        {
          "indexed": false,
          "internalType": "uint256",
          "name": "pricePerToken",
          "type": "uint256"
        }
      ],
      "name": "ProviderRegistered",
      "type": "event"
    },
    {
      "inputs": [],
      "name": "deregister",
      "outputs": [],
      "stateMutability": "nonpayable",
      "type": "function"
    },
    {
      "inputs": [],
      "name": "getActiveProviders",
      "outputs": [
        {
          "internalType": "address[]",
          "name": "",
          "type": "address[]"
        }
      ],
      "stateMutability": "view",
      "type": "function"
    },
    {
      "inputs": [
        {
          "internalType": "uint256",
          "name": "",
          "type": "uint256"
        }
      ],
      "name": "providerList",
      "outputs": [
        {
          "internalType": "address",
          "name": "",
          "type": "address"
        }
      ],
      "stateMutability": "view",
      "type": "function"
    },
    {
      "inputs": [
        {
          "internalType": "address",
          "name": "",
          "type": "address"
        }
      ],
      "name": "providers",
      "outputs": [
        {
          "internalType": "string",
          "name": "endpoint",
          "type": "string"
        },
        {
          "internalType": "string",
          "name": "model",
          "type": "string"
        },
        {
          "internalType": "uint256",
          "name": "pricePerToken",
          "type": "uint256"
        },
        {
          "internalType": "bool",
          "name": "active",
          "type": "bool"
        }
      ],
      "stateMutability": "view",
      "type": "function"
    },
    {
      "inputs": [
        {
          "internalType": "string",
          "name": "endpoint",
          "type": "string"
        },
        {
          "internalType": "string",
          "name": "model",
          "type": "string"
        },
        {
          "internalType": "uint256",
          "name": "pricePerToken",
          "type": "uint256"
        }
      ],
      "name": "register",
      "outputs": [],
      "stateMutability": "nonpayable",
      "type": "function"
    }
  ],
  "bytecode": "0x608060405234801561001057600080fd5b5061106a806100206000396000f3fe608060405234801561001057600080fd5b50600436106100575760003560e01c80630787bc271461005c578063390bfd3c1461008f578063aff5edb1146100bf578063e8a60558146100c9578063fb0e9ec1146100e5575b600080fd5b6100766004803603810190610071919061085b565b610103565b604051610086949392919061094c565b60405180910390f35b6100a960048036038101906100a491906109cb565b610250565b6040516100b69190610a07565b60405180910390f35b6100c761028f565b005b6100e360048036038101906100de9190610a87565b61032e565b005b6100ed610585565b6040516100fa9190610bda565b60405180910390f35b600060205280600052604060002060009150905080600001805461012690610c2b565b80601f016020809104026020016040519081016040528092919081815260200182805461015290610c2b565b801561019f5780601f106101745761010080835404028352916020019161019f565b820191906000526020600020905b81548152906001019060200180831161018257829003601f168201915b5050505050908060010180546101b490610c2b565b80601f01602080910402602001604051908101604052809291908181526020018280546101e090610c2b565b801561022d5780601f106102025761010080835404028352916020019161022d565b820191906000526020600020905b81548152906001019060200180831161021057829003601f168201915b5050505050908060020154908060030160009054906101000a900460ff16905084565b6001818154811061026057600080fd5b906000526020600020016000915054906101000a900473ffffffffffffffffffffffffffffffffffffffff1681565b60008060003373ffffffffffffffffffffffffffffffffffffffff1673ffffffffffffffffffffffffffffffffffffffff16815260200190815260200160002060030160006101000a81548160ff0219169083151502179055503373ffffffffffffffffffffffffffffffffffffffff167ff04091b4a187e321a42001e46961e45b6a75b203fc6fb766b7e05505f6080abb60405160405180910390a2565b6000803373ffffffffffffffffffffffffffffffffffffffff1673ffffffffffffffffffffffffffffffffffffffff16815260200190815260200160002060030160009054906101000a900460ff166103e5576001339080600181540180825580915050600190039060005260206000200160009091909190916101000a81548173ffffffffffffffffffffffffffffffffffffffff021916908373ffffffffffffffffffffffffffffffffffffffff1602179055505b604051806080016040528086868080601f016020809104026020016040519081016040528093929190818152602001838380828437600081840152601f19601f82011690508083019250505050505050815260200184848080601f016020809104026020016040519081016040528093929190818152602001838380828437600081840152601f19601f820116905080830192505050505050508152602001828152602001600115158152506000803373ffffffffffffffffffffffffffffffffffffffff1673ffffffffffffffffffffffffffffffffffffffff16815260200190815260200160002060008201518160000190816104e49190610e37565b5060208201518160010190816104fa9190610e37565b506040820151816002015560608201518160030160006101000a81548160ff0219169083151502179055509050503373ffffffffffffffffffffffffffffffffffffffff167f0d6b14efa5052bf32a36097a0cc2f6160243416050a310a5f8d25f188df6693a8686868686604051610576959493929190610f45565b60405180910390a25050505050565b60606000805b60018054905081101561064c57600080600183815481106105af576105ae610f8e565b5b9060005260206000200160009054906101000a900473ffffffffffffffffffffffffffffffffffffffff1673ffffffffffffffffffffffffffffffffffffffff1673ffffffffffffffffffffffffffffffffffffffff16815260200190815260200160002060030160009054906101000a900460ff161561063957818061063590610fec565b9250505b808061064490610fec565b91505061058b565b5060008167ffffffffffffffff81111561066957610668610c5c565b5b6040519080825280602002602001820160405280156106975781602001602082028036833780820191505090505b5090506000805b6001805490508110156107e957600080600183815481106106c2576106c1610f8e565b5b9060005260206000200160009054906101000a900473ffffffffffffffffffffffffffffffffffffffff1673ffffffffffffffffffffffffffffffffffffffff1673ffffffffffffffffffffffffffffffffffffffff16815260200190815260200160002060030160009054906101000a900460ff16156107d6576001818154811061075157610750610f8e565b5b9060005260206000200160009054906101000a900473ffffffffffffffffffffffffffffffffffffffff1683838061078890610fec565b94508151811061079b5761079a610f8e565b5b602002602001019073ffffffffffffffffffffffffffffffffffffffff16908173ffffffffffffffffffffffffffffffffffffffff16815250505b80806107e190610fec565b91505061069e565b5081935050505090565b600080fd5b600080fd5b600073ffffffffffffffffffffffffffffffffffffffff82169050919050565b6000610828826107fd565b9050919050565b6108388161081d565b811461084357600080fd5b50565b6000813590506108558161082f565b92915050565b600060208284031215610871576108706107f3565b5b600061087f84828501610846565b91505092915050565b600081519050919050565b600082825260208201905092915050565b60005b838110156108c25780820151818401526020810190506108a7565b60008484015250505050565b6000601f19601f8301169050919050565b60006108ea82610888565b6108f48185610893565b93506109048185602086016108a4565b61090d816108ce565b840191505092915050565b6000819050919050565b61092b81610918565b82525050565b60008115159050919050565b61094681610931565b82525050565b6000608082019050818103600083015261096681876108df565b9050818103602083015261097a81866108df565b90506109896040830185610922565b610996606083018461093d565b95945050505050565b6109a881610918565b81146109b357600080fd5b50565b6000813590506109c58161099f565b92915050565b6000602082840312156109e1576109e06107f3565b5b60006109ef848285016109b6565b91505092915050565b610a018161081d565b82525050565b6000602082019050610a1c60008301846109f8565b92915050565b600080fd5b600080fd5b600080fd5b60008083601f840112610a4757610a46610a22565b5b8235905067ffffffffffffffff811115610a6457610a63610a27565b5b602083019150836001820283011115610a8057610a7f610a2c565b5b9250929050565b600080600080600060608688031215610aa357610aa26107f3565b5b600086013567ffffffffffffffff811115610ac157610ac06107f8565b5b610acd88828901610a31565b9550955050602086013567ffffffffffffffff811115610af057610aef6107f8565b5b610afc88828901610a31565b93509350506040610b0f888289016109b6565b9150509295509295909350565b600081519050919050565b600082825260208201905092915050565b6000819050602082019050919050565b610b518161081d565b82525050565b6000610b638383610b48565b60208301905092915050565b6000602082019050919050565b6000610b8782610b1c565b610b918185610b27565b9350610b9c83610b38565b8060005b83811015610bcd578151610bb48882610b57565b9750610bbf83610b6f565b925050600181019050610ba0565b5085935050505092915050565b60006020820190508181036000830152610bf48184610b7c565b905092915050565b7f4e487b7100000000000000000000000000000000000000000000000000000000600052602260045260246000fd5b60006002820490506001821680610c4357607f821691505b602082108103610c5657610c55610bfc565b5b50919050565b7f4e487b7100000000000000000000000000000000000000000000000000000000600052604160045260246000fd5b60008190508160005260206000209050919050565b60006020601f8301049050919050565b600082821b905092915050565b600060088302610ced7fffffffffffffffffffffffffffffffffffffffffffffffffffffffffffffffff82610cb0565b610cf78683610cb0565b95508019841693508086168417925050509392505050565b6000819050919050565b6000610d34610d2f610d2a84610918565b610d0f565b610918565b9050919050565b6000819050919050565b610d4e83610d19565b610d62610d5a82610d3b565b848454610cbd565b825550505050565b600090565b610d77610d6a565b610d82818484610d45565b505050565b5b81811015610da657610d9b600082610d6f565b600181019050610d88565b5050565b601f821115610deb57610dbc81610c8b565b610dc584610ca0565b81016020851015610dd4578190505b610de8610de085610ca0565b830182610d87565b50505b505050565b600082821c905092915050565b6000610e0e60001984600802610df0565b1980831691505092915050565b6000610e278383610dfd565b9150826002028217905092915050565b610e4082610888565b67ffffffffffffffff811115610e5957610e58610c5c565b5b610e638254610c2b565b610e6e828285610daa565b600060209050601f831160018114610ea15760008415610e8f578287015190505b610e998582610e1b565b865550610f01565b601f198416610eaf86610c8b565b60005b82811015610ed757848901518255600182019150602085019450602081019050610eb2565b86831015610ef45784890151610ef0601f891682610dfd565b8355505b6001600288020188555050505b505050505050565b82818337600083830152505050565b6000610f248385610893565b9350610f31838584610f09565b610f3a836108ce565b840190509392505050565b60006060820190508181036000830152610f60818789610f18565b90508181036020830152610f75818587610f18565b9050610f846040830184610922565b9695505050505050565b7f4e487b7100000000000000000000000000000000000000000000000000000000600052603260045260246000fd5b7f4e487b7100000000000000000000000000000000000000000000000000000000600052601160045260246000fd5b6000610ff782610918565b91507fffffffffffffffffffffffffffffffffffffffffffffffffffffffffffffffff820361102957611028610fbd565b5b60018201905091905056fea26469706673582212201b74c6da82ecaf2ab4676903f7ff9c98bf20b1030c4c417b8a4d1d53a1fcde3564736f6c63430008140033",
  "linkReferences": {},
  "deployedLinkReferences": {}
}